{
	"charitydonation.sol": {
		"CharityDonation": {
			"abi": [
				{
					"inputs": [],
					"stateMutability": "nonpayable",
					"type": "constructor"
				},
				{
					"anonymous": false,
					"inputs": [
						{
							"indexed": false,
							"internalType": "address",
							"name": "oldAdmin",
							"type": "address"
						},
						{
							"indexed": false,
							"internalType": "address",
							"name": "newAdmin",
							"type": "address"
						}
					],
					"name": "AdminTransferred",
					"type": "event"
				},
				{
					"anonymous": false,
					"inputs": [
						{
							"indexed": false,
							"internalType": "address",
							"name": "donor",
							"type": "address"
						},
						{
							"indexed": false,
							"internalType": "uint256",
							"name": "amount",
							"type": "uint256"
						}
					],
					"name": "DonationReceived",
					"type": "event"
				},
				{
					"anonymous": false,
					"inputs": [
						{
							"indexed": false,
							"internalType": "address",
							"name": "admin",
							"type": "address"
						},
						{
							"indexed": false,
							"internalType": "uint256",
							"name": "amount",
							"type": "uint256"
						}
					],
					"name": "FundsWithdrawn",
					"type": "event"
				},
				{
					"inputs": [],
					"name": "admin",
					"outputs": [
						{
							"internalType": "address",
							"name": "",
							"type": "address"
						}
					],
					"stateMutability": "view",
					"type": "function"
				},
				{
					"inputs": [],
					"name": "donate",
					"outputs": [],
					"stateMutability": "payable",
					"type": "function"
				},
				{
					"inputs": [],
					"name": "getBalance",
					"outputs": [
						{
							"internalType": "uint256",
							"name": "",
							"type": "uint256"
						}
					],
					"stateMutability": "view",
					"type": "function"
				},
				{
					"inputs": [],
					"name": "totalDonations",
					"outputs": [
						{
							"internalType": "uint256",
							"name": "",
							"type": "uint256"
						}
					],
					"stateMutability": "view",
					"type": "function"
				},
				{
					"inputs": [
						{
							"internalType": "address",
							"name": "newAdmin",
							"type": "address"
						}
					],
					"name": "transferAdmin",
					"outputs": [],
					"stateMutability": "nonpayable",
					"type": "function"
				},
				{
					"inputs": [
						{
							"internalType": "uint256",
							"name": "amount",
							"type": "uint256"
						}
					],
					"name": "withdraw",
					"outputs": [],
					"stateMutability": "nonpayable",
					"type": "function"
				}
			],
			"devdoc": {
				"kind": "dev",
				"methods": {},
				"version": 1
			},
			"evm": {
				"assembly": "    /* \"charitydonation.sol\":61:1789  contract CharityDonation {... */\n  mstore(0x40, 0x80)\n    /* \"charitydonation.sol\":505:556  constructor() {... */\n  callvalue\n  dup1\n  iszero\n  tag_1\n  jumpi\n  0x00\n  dup1\n  revert\ntag_1:\n  pop\n    /* \"charitydonation.sol\":538:548  msg.sender */\n  caller\n    /* \"charitydonation.sol\":530:535  admin */\n  0x00\n  dup1\n    /* \"charitydonation.sol\":530:548  admin = msg.sender */\n  0x0100\n  exp\n  dup2\n  sload\n  dup2\n  0xffffffffffffffffffffffffffffffffffffffff\n  mul\n  not\n  and\n  swap1\n  dup4\n  0xffffffffffffffffffffffffffffffffffffffff\n  and\n  mul\n  or\n  swap1\n  sstore\n  pop\n    /* \"charitydonation.sol\":61:1789  contract CharityDonation {... */\n  dataSize(sub_0)\n  dup1\n  dataOffset(sub_0)\n  0x00\n  codecopy\n  0x00\n  return\nstop\n\nsub_0: assembly {\n        /* \"charitydonation.sol\":61:1789  contract CharityDonation {... */\n      mstore(0x40, 0x80)\n      jumpi(tag_1, lt(calldatasize, 0x04))\n      shr(0xe0, calldataload(0x00))\n      dup1\n      0x12065fe0\n      eq\n      tag_2\n      jumpi\n      dup1\n      0x2e1a7d4d\n      eq\n      tag_3\n      jumpi\n      dup1\n      0x75829def\n      eq\n      tag_4\n      jumpi\n      dup1\n      0xde2ed893\n      eq\n      tag_5\n      jumpi\n      dup1\n      0xed88c68e\n      eq\n      tag_6\n      jumpi\n      dup1\n      0xf851a440\n      eq\n      tag_7\n      jumpi\n    tag_1:\n      0x00\n      dup1\n      revert\n        /* \"charitydonation.sol\":1054:1155  function getBalance() external view returns (uint256) {... */\n    tag_2:\n      callvalue\n      dup1\n      iszero\n      tag_8\n      jumpi\n      0x00\n      dup1\n      revert\n    tag_8:\n      pop\n      tag_9\n      tag_10\n      jump\t// in\n    tag_9:\n      mload(0x40)\n      tag_11\n      swap2\n      swap1\n      tag_12\n      jump\t// in\n    tag_11:\n      mload(0x40)\n      dup1\n      swap2\n      sub\n      swap1\n      return\n        /* \"charitydonation.sol\":1220:1476  function withdraw(uint256 amount) external onlyAdmin {... */\n    tag_3:\n      callvalue\n      dup1\n      iszero\n      tag_13\n      jumpi\n      0x00\n      dup1\n      revert\n    tag_13:\n      pop\n      tag_14\n      0x04\n      dup1\n      calldatasize\n      sub\n      dup2\n      add\n      swap1\n      tag_15\n      swap2\n      swap1\n      tag_16\n      jump\t// in\n    tag_15:\n      tag_17\n      jump\t// in\n    tag_14:\n      stop\n        /* \"charitydonation.sol\":1526:1786  function transferAdmin(address newAdmin) external onlyAdmin {... */\n    tag_4:\n      callvalue\n      dup1\n      iszero\n      tag_18\n      jumpi\n      0x00\n      dup1\n      revert\n    tag_18:\n      pop\n      tag_19\n      0x04\n      dup1\n      calldatasize\n      sub\n      dup2\n      add\n      swap1\n      tag_20\n      swap2\n      swap1\n      tag_21\n      jump\t// in\n    tag_20:\n      tag_22\n      jump\t// in\n    tag_19:\n      stop\n        /* \"charitydonation.sol\":144:173  uint256 public totalDonations */\n    tag_5:\n      callvalue\n      dup1\n      iszero\n      tag_23\n      jumpi\n      0x00\n      dup1\n      revert\n    tag_23:\n      pop\n      tag_24\n      tag_25\n      jump\t// in\n    tag_24:\n      mload(0x40)\n      tag_26\n      swap2\n      swap1\n      tag_12\n      jump\t// in\n    tag_26:\n      mload(0x40)\n      dup1\n      swap2\n      sub\n      swap1\n      return\n        /* \"charitydonation.sol\":777:988  function donate() external payable {... */\n    tag_6:\n      tag_27\n      tag_28\n      jump\t// in\n    tag_27:\n      stop\n        /* \"charitydonation.sol\":117:137  address public admin */\n    tag_7:\n      callvalue\n      dup1\n      iszero\n      tag_29\n      jumpi\n      0x00\n      dup1\n      revert\n    tag_29:\n      pop\n      tag_30\n      tag_31\n      jump\t// in\n    tag_30:\n      mload(0x40)\n      tag_32\n      swap2\n      swap1\n      tag_33\n      jump\t// in\n    tag_32:\n      mload(0x40)\n      dup1\n      swap2\n      sub\n      swap1\n      return\n        /* \"charitydonation.sol\":1054:1155  function getBalance() external view returns (uint256) {... */\n    tag_10:\n        /* \"charitydonation.sol\":1099:1106  uint256 */\n      0x00\n        /* \"charitydonation.sol\":1126:1147  address(this).balance */\n      selfbalance\n        /* \"charitydonation.sol\":1119:1147  return address(this).balance */\n      swap1\n      pop\n        /* \"charitydonation.sol\":1054:1155  function getBalance() external view returns (uint256) {... */\n      swap1\n      jump\t// out\n        /* \"charitydonation.sol\":1220:1476  function withdraw(uint256 amount) external onlyAdmin {... */\n    tag_17:\n        /* \"charitydonation.sol\":667:672  admin */\n      0x00\n      dup1\n      sload\n      swap1\n      0x0100\n      exp\n      swap1\n      div\n      0xffffffffffffffffffffffffffffffffffffffff\n      and\n        /* \"charitydonation.sol\":653:672  msg.sender == admin */\n      0xffffffffffffffffffffffffffffffffffffffff\n      and\n        /* \"charitydonation.sol\":653:663  msg.sender */\n      caller\n        /* \"charitydonation.sol\":653:672  msg.sender == admin */\n      0xffffffffffffffffffffffffffffffffffffffff\n      and\n      eq\n        /* \"charitydonation.sol\":645:711  require(msg.sender == admin, \"Only admin can perform this action\") */\n      tag_36\n      jumpi\n      mload(0x40)\n      0x08c379a000000000000000000000000000000000000000000000000000000000\n      dup2\n      mstore\n      0x04\n      add\n      tag_37\n      swap1\n      tag_38\n      jump\t// in\n    tag_37:\n      mload(0x40)\n      dup1\n      swap2\n      sub\n      swap1\n      revert\n    tag_36:\n        /* \"charitydonation.sol\":1302:1323  address(this).balance */\n      selfbalance\n        /* \"charitydonation.sol\":1292:1298  amount */\n      dup2\n        /* \"charitydonation.sol\":1292:1323  amount <= address(this).balance */\n      gt\n      iszero\n        /* \"charitydonation.sol\":1284:1346  require(amount <= address(this).balance, \"Insufficient funds\") */\n      tag_40\n      jumpi\n      mload(0x40)\n      0x08c379a000000000000000000000000000000000000000000000000000000000\n      dup2\n      mstore\n      0x04\n      add\n      tag_41\n      swap1\n      tag_42\n      jump\t// in\n    tag_41:\n      mload(0x40)\n      dup1\n      swap2\n      sub\n      swap1\n      revert\n    tag_40:\n        /* \"charitydonation.sol\":1365:1370  admin */\n      0x00\n      dup1\n      sload\n      swap1\n      0x0100\n      exp\n      swap1\n      div\n      0xffffffffffffffffffffffffffffffffffffffff\n      and\n        /* \"charitydonation.sol\":1357:1380  payable(admin).transfer */\n      0xffffffffffffffffffffffffffffffffffffffff\n      and\n        /* \"charitydonation.sol\":1357:1388  payable(admin).transfer(amount) */\n      0x08fc\n        /* \"charitydonation.sol\":1381:1387  amount */\n      dup3\n        /* \"charitydonation.sol\":1357:1388  payable(admin).transfer(amount) */\n      swap1\n      dup2\n      iszero\n      mul\n      swap1\n      mload(0x40)\n      0x00\n      mload(0x40)\n      dup1\n      dup4\n      sub\n      dup2\n      dup6\n      dup9\n      dup9\n      call\n      swap4\n      pop\n      pop\n      pop\n      pop\n      iszero\n      dup1\n      iszero\n      tag_44\n      jumpi\n      returndatasize\n      0x00\n      dup1\n      returndatacopy\n      revert(0x00, returndatasize)\n    tag_44:\n      pop\n        /* \"charitydonation.sol\":1417:1423  amount */\n      dup1\n        /* \"charitydonation.sol\":1399:1413  totalDonations */\n      0x01\n      0x00\n        /* \"charitydonation.sol\":1399:1423  totalDonations -= amount */\n      dup3\n      dup3\n      sload\n      tag_45\n      swap2\n      swap1\n      tag_46\n      jump\t// in\n    tag_45:\n      swap3\n      pop\n      pop\n      dup2\n      swap1\n      sstore\n      pop\n        /* \"charitydonation.sol\":1439:1468  FundsWithdrawn(admin, amount) */\n      0xeaff4b37086828766ad3268786972c0cd24259d4c87a80f9d3963a3c3d999b0d\n        /* \"charitydonation.sol\":1454:1459  admin */\n      0x00\n      dup1\n      sload\n      swap1\n      0x0100\n      exp\n      swap1\n      div\n      0xffffffffffffffffffffffffffffffffffffffff\n      and\n        /* \"charitydonation.sol\":1461:1467  amount */\n      dup3\n        /* \"charitydonation.sol\":1439:1468  FundsWithdrawn(admin, amount) */\n      mload(0x40)\n      tag_47\n      swap3\n      swap2\n      swap1\n      tag_48\n      jump\t// in\n    tag_47:\n      mload(0x40)\n      dup1\n      swap2\n      sub\n      swap1\n      log1\n        /* \"charitydonation.sol\":1220:1476  function withdraw(uint256 amount) external onlyAdmin {... */\n      pop\n      jump\t// out\n        /* \"charitydonation.sol\":1526:1786  function transferAdmin(address newAdmin) external onlyAdmin {... */\n    tag_22:\n        /* \"charitydonation.sol\":667:672  admin */\n      0x00\n      dup1\n      sload\n      swap1\n      0x0100\n      exp\n      swap1\n      div\n      0xffffffffffffffffffffffffffffffffffffffff\n      and\n        /* \"charitydonation.sol\":653:672  msg.sender == admin */\n      0xffffffffffffffffffffffffffffffffffffffff\n      and\n        /* \"charitydonation.sol\":653:663  msg.sender */\n      caller\n        /* \"charitydonation.sol\":653:672  msg.sender == admin */\n      0xffffffffffffffffffffffffffffffffffffffff\n      and\n      eq\n        /* \"charitydonation.sol\":645:711  require(msg.sender == admin, \"Only admin can perform this action\") */\n      tag_50\n      jumpi\n      mload(0x40)\n      0x08c379a000000000000000000000000000000000000000000000000000000000\n      dup2\n      mstore\n      0x04\n      add\n      tag_51\n      swap1\n      tag_38\n      jump\t// in\n    tag_51:\n      mload(0x40)\n      dup1\n      swap2\n      sub\n      swap1\n      revert\n    tag_50:\n        /* \"charitydonation.sol\":1625:1626  0 */\n      0x00\n        /* \"charitydonation.sol\":1605:1627  newAdmin != address(0) */\n      0xffffffffffffffffffffffffffffffffffffffff\n      and\n        /* \"charitydonation.sol\":1605:1613  newAdmin */\n      dup2\n        /* \"charitydonation.sol\":1605:1627  newAdmin != address(0) */\n      0xffffffffffffffffffffffffffffffffffffffff\n      and\n      sub\n        /* \"charitydonation.sol\":1597:1664  require(newAdmin != address(0), \"New admin address cannot be zero\") */\n      tag_53\n      jumpi\n      mload(0x40)\n      0x08c379a000000000000000000000000000000000000000000000000000000000\n      dup2\n      mstore\n      0x04\n      add\n      tag_54\n      swap1\n      tag_55\n      jump\t// in\n    tag_54:\n      mload(0x40)\n      dup1\n      swap2\n      sub\n      swap1\n      revert\n    tag_53:\n        /* \"charitydonation.sol\":1675:1691  address oldAdmin */\n      0x00\n        /* \"charitydonation.sol\":1694:1699  admin */\n      dup1\n      0x00\n      swap1\n      sload\n      swap1\n      0x0100\n      exp\n      swap1\n      div\n      0xffffffffffffffffffffffffffffffffffffffff\n      and\n        /* \"charitydonation.sol\":1675:1699  address oldAdmin = admin */\n      swap1\n      pop\n        /* \"charitydonation.sol\":1718:1726  newAdmin */\n      dup2\n        /* \"charitydonation.sol\":1710:1715  admin */\n      0x00\n      dup1\n        /* \"charitydonation.sol\":1710:1726  admin = newAdmin */\n      0x0100\n      exp\n      dup2\n      sload\n      dup2\n      0xffffffffffffffffffffffffffffffffffffffff\n      mul\n      not\n      and\n      swap1\n      dup4\n      0xffffffffffffffffffffffffffffffffffffffff\n      and\n      mul\n      or\n      swap1\n      sstore\n      pop\n        /* \"charitydonation.sol\":1742:1778  AdminTransferred(oldAdmin, newAdmin) */\n      0xf8ccb027dfcd135e000e9d45e6cc2d662578a8825d4c45b5e32e0adf67e79ec6\n        /* \"charitydonation.sol\":1759:1767  oldAdmin */\n      dup2\n        /* \"charitydonation.sol\":1769:1777  newAdmin */\n      dup4\n        /* \"charitydonation.sol\":1742:1778  AdminTransferred(oldAdmin, newAdmin) */\n      mload(0x40)\n      tag_56\n      swap3\n      swap2\n      swap1\n      tag_57\n      jump\t// in\n    tag_56:\n      mload(0x40)\n      dup1\n      swap2\n      sub\n      swap1\n      log1\n        /* \"charitydonation.sol\":1586:1786  {... */\n      pop\n        /* \"charitydonation.sol\":1526:1786  function transferAdmin(address newAdmin) external onlyAdmin {... */\n      pop\n      jump\t// out\n        /* \"charitydonation.sol\":144:173  uint256 public totalDonations */\n    tag_25:\n      sload(0x01)\n      dup2\n      jump\t// out\n        /* \"charitydonation.sol\":777:988  function donate() external payable {... */\n    tag_28:\n        /* \"charitydonation.sol\":843:844  0 */\n      0x00\n        /* \"charitydonation.sol\":831:840  msg.value */\n      callvalue\n        /* \"charitydonation.sol\":831:844  msg.value > 0 */\n      gt\n        /* \"charitydonation.sol\":823:887  require(msg.value > 0, \"Donation amount must be greater than 0\") */\n      tag_59\n      jumpi\n      mload(0x40)\n      0x08c379a000000000000000000000000000000000000000000000000000000000\n      dup2\n      mstore\n      0x04\n      add\n      tag_60\n      swap1\n      tag_61\n      jump\t// in\n    tag_60:\n      mload(0x40)\n      dup1\n      swap2\n      sub\n      swap1\n      revert\n    tag_59:\n        /* \"charitydonation.sol\":916:925  msg.value */\n      callvalue\n        /* \"charitydonation.sol\":898:912  totalDonations */\n      0x01\n      0x00\n        /* \"charitydonation.sol\":898:925  totalDonations += msg.value */\n      dup3\n      dup3\n      sload\n      tag_62\n      swap2\n      swap1\n      tag_63\n      jump\t// in\n    tag_62:\n      swap3\n      pop\n      pop\n      dup2\n      swap1\n      sstore\n      pop\n        /* \"charitydonation.sol\":941:980  DonationReceived(msg.sender, msg.value) */\n      0x264f630d9efa0d07053a31163641d9fcc0adafc9d9e76f1c37c2ce3a558d2c52\n        /* \"charitydonation.sol\":958:968  msg.sender */\n      caller\n        /* \"charitydonation.sol\":970:979  msg.value */\n      callvalue\n        /* \"charitydonation.sol\":941:980  DonationReceived(msg.sender, msg.value) */\n      mload(0x40)\n      tag_64\n      swap3\n      swap2\n      swap1\n      tag_48\n      jump\t// in\n    tag_64:\n      mload(0x40)\n      dup1\n      swap2\n      sub\n      swap1\n      log1\n        /* \"charitydonation.sol\":777:988  function donate() external payable {... */\n      jump\t// out\n        /* \"charitydonation.sol\":117:137  address public admin */\n    tag_31:\n      0x00\n      dup1\n      sload\n      swap1\n      0x0100\n      exp\n      swap1\n      div\n      0xffffffffffffffffffffffffffffffffffffffff\n      and\n      dup2\n      jump\t// out\n        /* \"#utility.yul\":7:84   */\n    tag_65:\n        /* \"#utility.yul\":44:51   */\n      0x00\n        /* \"#utility.yul\":73:78   */\n      dup2\n        /* \"#utility.yul\":62:78   */\n      swap1\n      pop\n        /* \"#utility.yul\":7:84   */\n      swap2\n      swap1\n      pop\n      jump\t// out\n        /* \"#utility.yul\":90:208   */\n    tag_66:\n        /* \"#utility.yul\":177:201   */\n      tag_90\n        /* \"#utility.yul\":195:200   */\n      dup2\n        /* \"#utility.yul\":177:201   */\n      tag_65\n      jump\t// in\n    tag_90:\n        /* \"#utility.yul\":172:175   */\n      dup3\n        /* \"#utility.yul\":165:202   */\n      mstore\n        /* \"#utility.yul\":90:208   */\n      pop\n      pop\n      jump\t// out\n        /* \"#utility.yul\":214:436   */\n    tag_12:\n        /* \"#utility.yul\":307:311   */\n      0x00\n        /* \"#utility.yul\":345:347   */\n      0x20\n        /* \"#utility.yul\":334:343   */\n      dup3\n        /* \"#utility.yul\":330:348   */\n      add\n        /* \"#utility.yul\":322:348   */\n      swap1\n      pop\n        /* \"#utility.yul\":358:429   */\n      tag_92\n        /* \"#utility.yul\":426:427   */\n      0x00\n        /* \"#utility.yul\":415:424   */\n      dup4\n        /* \"#utility.yul\":411:428   */\n      add\n        /* \"#utility.yul\":402:408   */\n      dup5\n        /* \"#utility.yul\":358:429   */\n      tag_66\n      jump\t// in\n    tag_92:\n        /* \"#utility.yul\":214:436   */\n      swap3\n      swap2\n      pop\n      pop\n      jump\t// out\n        /* \"#utility.yul\":523:640   */\n    tag_68:\n        /* \"#utility.yul\":632:633   */\n      0x00\n        /* \"#utility.yul\":629:630   */\n      dup1\n        /* \"#utility.yul\":622:634   */\n      revert\n        /* \"#utility.yul\":769:891   */\n    tag_70:\n        /* \"#utility.yul\":842:866   */\n      tag_97\n        /* \"#utility.yul\":860:865   */\n      dup2\n        /* \"#utility.yul\":842:866   */\n      tag_65\n      jump\t// in\n    tag_97:\n        /* \"#utility.yul\":835:840   */\n      dup2\n        /* \"#utility.yul\":832:867   */\n      eq\n        /* \"#utility.yul\":822:885   */\n      tag_98\n      jumpi\n        /* \"#utility.yul\":881:882   */\n      0x00\n        /* \"#utility.yul\":878:879   */\n      dup1\n        /* \"#utility.yul\":871:883   */\n      revert\n        /* \"#utility.yul\":822:885   */\n    tag_98:\n        /* \"#utility.yul\":769:891   */\n      pop\n      jump\t// out\n        /* \"#utility.yul\":897:1036   */\n    tag_71:\n        /* \"#utility.yul\":943:948   */\n      0x00\n        /* \"#utility.yul\":981:987   */\n      dup2\n        /* \"#utility.yul\":968:988   */\n      calldataload\n        /* \"#utility.yul\":959:988   */\n      swap1\n      pop\n        /* \"#utility.yul\":997:1030   */\n      tag_100\n        /* \"#utility.yul\":1024:1029   */\n      dup2\n        /* \"#utility.yul\":997:1030   */\n      tag_70\n      jump\t// in\n    tag_100:\n        /* \"#utility.yul\":897:1036   */\n      swap3\n      swap2\n      pop\n      pop\n      jump\t// out\n        /* \"#utility.yul\":1042:1371   */\n    tag_16:\n        /* \"#utility.yul\":1101:1107   */\n      0x00\n        /* \"#utility.yul\":1150:1152   */\n      0x20\n        /* \"#utility.yul\":1138:1147   */\n      dup3\n        /* \"#utility.yul\":1129:1136   */\n      dup5\n        /* \"#utility.yul\":1125:1148   */\n      sub\n        /* \"#utility.yul\":1121:1153   */\n      slt\n        /* \"#utility.yul\":1118:1237   */\n      iszero\n      tag_102\n      jumpi\n        /* \"#utility.yul\":1156:1235   */\n      tag_103\n      tag_68\n      jump\t// in\n    tag_103:\n        /* \"#utility.yul\":1118:1237   */\n    tag_102:\n        /* \"#utility.yul\":1276:1277   */\n      0x00\n        /* \"#utility.yul\":1301:1354   */\n      tag_104\n        /* \"#utility.yul\":1346:1353   */\n      dup5\n        /* \"#utility.yul\":1337:1343   */\n      dup3\n        /* \"#utility.yul\":1326:1335   */\n      dup6\n        /* \"#utility.yul\":1322:1344   */\n      add\n        /* \"#utility.yul\":1301:1354   */\n      tag_71\n      jump\t// in\n    tag_104:\n        /* \"#utility.yul\":1291:1354   */\n      swap2\n      pop\n        /* \"#utility.yul\":1247:1364   */\n      pop\n        /* \"#utility.yul\":1042:1371   */\n      swap3\n      swap2\n      pop\n      pop\n      jump\t// out\n        /* \"#utility.yul\":1377:1503   */\n    tag_72:\n        /* \"#utility.yul\":1414:1421   */\n      0x00\n        /* \"#utility.yul\":1454:1496   */\n      0xffffffffffffffffffffffffffffffffffffffff\n        /* \"#utility.yul\":1447:1452   */\n      dup3\n        /* \"#utility.yul\":1443:1497   */\n      and\n        /* \"#utility.yul\":1432:1497   */\n      swap1\n      pop\n        /* \"#utility.yul\":1377:1503   */\n      swap2\n      swap1\n      pop\n      jump\t// out\n        /* \"#utility.yul\":1509:1605   */\n    tag_73:\n        /* \"#utility.yul\":1546:1553   */\n      0x00\n        /* \"#utility.yul\":1575:1599   */\n      tag_107\n        /* \"#utility.yul\":1593:1598   */\n      dup3\n        /* \"#utility.yul\":1575:1599   */\n      tag_72\n      jump\t// in\n    tag_107:\n        /* \"#utility.yul\":1564:1599   */\n      swap1\n      pop\n        /* \"#utility.yul\":1509:1605   */\n      swap2\n      swap1\n      pop\n      jump\t// out\n        /* \"#utility.yul\":1611:1733   */\n    tag_74:\n        /* \"#utility.yul\":1684:1708   */\n      tag_109\n        /* \"#utility.yul\":1702:1707   */\n      dup2\n        /* \"#utility.yul\":1684:1708   */\n      tag_73\n      jump\t// in\n    tag_109:\n        /* \"#utility.yul\":1677:1682   */\n      dup2\n        /* \"#utility.yul\":1674:1709   */\n      eq\n        /* \"#utility.yul\":1664:1727   */\n      tag_110\n      jumpi\n        /* \"#utility.yul\":1723:1724   */\n      0x00\n        /* \"#utility.yul\":1720:1721   */\n      dup1\n        /* \"#utility.yul\":1713:1725   */\n      revert\n        /* \"#utility.yul\":1664:1727   */\n    tag_110:\n        /* \"#utility.yul\":1611:1733   */\n      pop\n      jump\t// out\n        /* \"#utility.yul\":1739:1878   */\n    tag_75:\n        /* \"#utility.yul\":1785:1790   */\n      0x00\n        /* \"#utility.yul\":1823:1829   */\n      dup2\n        /* \"#utility.yul\":1810:1830   */\n      calldataload\n        /* \"#utility.yul\":1801:1830   */\n      swap1\n      pop\n        /* \"#utility.yul\":1839:1872   */\n      tag_112\n        /* \"#utility.yul\":1866:1871   */\n      dup2\n        /* \"#utility.yul\":1839:1872   */\n      tag_74\n      jump\t// in\n    tag_112:\n        /* \"#utility.yul\":1739:1878   */\n      swap3\n      swap2\n      pop\n      pop\n      jump\t// out\n        /* \"#utility.yul\":1884:2213   */\n    tag_21:\n        /* \"#utility.yul\":1943:1949   */\n      0x00\n        /* \"#utility.yul\":1992:1994   */\n      0x20\n        /* \"#utility.yul\":1980:1989   */\n      dup3\n        /* \"#utility.yul\":1971:1978   */\n      dup5\n        /* \"#utility.yul\":1967:1990   */\n      sub\n        /* \"#utility.yul\":1963:1995   */\n      slt\n        /* \"#utility.yul\":1960:2079   */\n      iszero\n      tag_114\n      jumpi\n        /* \"#utility.yul\":1998:2077   */\n      tag_115\n      tag_68\n      jump\t// in\n    tag_115:\n        /* \"#utility.yul\":1960:2079   */\n    tag_114:\n        /* \"#utility.yul\":2118:2119   */\n      0x00\n        /* \"#utility.yul\":2143:2196   */\n      tag_116\n        /* \"#utility.yul\":2188:2195   */\n      dup5\n        /* \"#utility.yul\":2179:2185   */\n      dup3\n        /* \"#utility.yul\":2168:2177   */\n      dup6\n        /* \"#utility.yul\":2164:2186   */\n      add\n        /* \"#utility.yul\":2143:2196   */\n      tag_75\n      jump\t// in\n    tag_116:\n        /* \"#utility.yul\":2133:2196   */\n      swap2\n      pop\n        /* \"#utility.yul\":2089:2206   */\n      pop\n        /* \"#utility.yul\":1884:2213   */\n      swap3\n      swap2\n      pop\n      pop\n      jump\t// out\n        /* \"#utility.yul\":2219:2337   */\n    tag_76:\n        /* \"#utility.yul\":2306:2330   */\n      tag_118\n        /* \"#utility.yul\":2324:2329   */\n      dup2\n        /* \"#utility.yul\":2306:2330   */\n      tag_73\n      jump\t// in\n    tag_118:\n        /* \"#utility.yul\":2301:2304   */\n      dup3\n        /* \"#utility.yul\":2294:2331   */\n      mstore\n        /* \"#utility.yul\":2219:2337   */\n      pop\n      pop\n      jump\t// out\n        /* \"#utility.yul\":2343:2565   */\n    tag_33:\n        /* \"#utility.yul\":2436:2440   */\n      0x00\n        /* \"#utility.yul\":2474:2476   */\n      0x20\n        /* \"#utility.yul\":2463:2472   */\n      dup3\n        /* \"#utility.yul\":2459:2477   */\n      add\n        /* \"#utility.yul\":2451:2477   */\n      swap1\n      pop\n        /* \"#utility.yul\":2487:2558   */\n      tag_120\n        /* \"#utility.yul\":2555:2556   */\n      0x00\n        /* \"#utility.yul\":2544:2553   */\n      dup4\n        /* \"#utility.yul\":2540:2557   */\n      add\n        /* \"#utility.yul\":2531:2537   */\n      dup5\n        /* \"#utility.yul\":2487:2558   */\n      tag_76\n      jump\t// in\n    tag_120:\n        /* \"#utility.yul\":2343:2565   */\n      swap3\n      swap2\n      pop\n      pop\n      jump\t// out\n        /* \"#utility.yul\":2571:2740   */\n    tag_77:\n        /* \"#utility.yul\":2655:2666   */\n      0x00\n        /* \"#utility.yul\":2689:2695   */\n      dup3\n        /* \"#utility.yul\":2684:2687   */\n      dup3\n        /* \"#utility.yul\":2677:2696   */\n      mstore\n        /* \"#utility.yul\":2729:2733   */\n      0x20\n        /* \"#utility.yul\":2724:2727   */\n      dup3\n        /* \"#utility.yul\":2720:2734   */\n      add\n        /* \"#utility.yul\":2705:2734   */\n      swap1\n      pop\n        /* \"#utility.yul\":2571:2740   */\n      swap3\n      swap2\n      pop\n      pop\n      jump\t// out\n        /* \"#utility.yul\":2746:2967   */\n    tag_78:\n        /* \"#utility.yul\":2886:2920   */\n      0x4f6e6c792061646d696e2063616e20706572666f726d20746869732061637469\n        /* \"#utility.yul\":2882:2883   */\n      0x00\n        /* \"#utility.yul\":2874:2880   */\n      dup3\n        /* \"#utility.yul\":2870:2884   */\n      add\n        /* \"#utility.yul\":2863:2921   */\n      mstore\n        /* \"#utility.yul\":2955:2959   */\n      0x6f6e000000000000000000000000000000000000000000000000000000000000\n        /* \"#utility.yul\":2950:2952   */\n      0x20\n        /* \"#utility.yul\":2942:2948   */\n      dup3\n        /* \"#utility.yul\":2938:2953   */\n      add\n        /* \"#utility.yul\":2931:2960   */\n      mstore\n        /* \"#utility.yul\":2746:2967   */\n      pop\n      jump\t// out\n        /* \"#utility.yul\":2973:3339   */\n    tag_79:\n        /* \"#utility.yul\":3115:3118   */\n      0x00\n        /* \"#utility.yul\":3136:3203   */\n      tag_124\n        /* \"#utility.yul\":3200:3202   */\n      0x22\n        /* \"#utility.yul\":3195:3198   */\n      dup4\n        /* \"#utility.yul\":3136:3203   */\n      tag_77\n      jump\t// in\n    tag_124:\n        /* \"#utility.yul\":3129:3203   */\n      swap2\n      pop\n        /* \"#utility.yul\":3212:3305   */\n      tag_125\n        /* \"#utility.yul\":3301:3304   */\n      dup3\n        /* \"#utility.yul\":3212:3305   */\n      tag_78\n      jump\t// in\n    tag_125:\n        /* \"#utility.yul\":3330:3332   */\n      0x40\n        /* \"#utility.yul\":3325:3328   */\n      dup3\n        /* \"#utility.yul\":3321:3333   */\n      add\n        /* \"#utility.yul\":3314:3333   */\n      swap1\n      pop\n        /* \"#utility.yul\":2973:3339   */\n      swap2\n      swap1\n      pop\n      jump\t// out\n        /* \"#utility.yul\":3345:3764   */\n    tag_38:\n        /* \"#utility.yul\":3511:3515   */\n      0x00\n        /* \"#utility.yul\":3549:3551   */\n      0x20\n        /* \"#utility.yul\":3538:3547   */\n      dup3\n        /* \"#utility.yul\":3534:3552   */\n      add\n        /* \"#utility.yul\":3526:3552   */\n      swap1\n      pop\n        /* \"#utility.yul\":3598:3607   */\n      dup2\n        /* \"#utility.yul\":3592:3596   */\n      dup2\n        /* \"#utility.yul\":3588:3608   */\n      sub\n        /* \"#utility.yul\":3584:3585   */\n      0x00\n        /* \"#utility.yul\":3573:3582   */\n      dup4\n        /* \"#utility.yul\":3569:3586   */\n      add\n        /* \"#utility.yul\":3562:3609   */\n      mstore\n        /* \"#utility.yul\":3626:3757   */\n      tag_127\n        /* \"#utility.yul\":3752:3756   */\n      dup2\n        /* \"#utility.yul\":3626:3757   */\n      tag_79\n      jump\t// in\n    tag_127:\n        /* \"#utility.yul\":3618:3757   */\n      swap1\n      pop\n        /* \"#utility.yul\":3345:3764   */\n      swap2\n      swap1\n      pop\n      jump\t// out\n        /* \"#utility.yul\":3770:3938   */\n    tag_80:\n        /* \"#utility.yul\":3910:3930   */\n      0x496e73756666696369656e742066756e64730000000000000000000000000000\n        /* \"#utility.yul\":3906:3907   */\n      0x00\n        /* \"#utility.yul\":3898:3904   */\n      dup3\n        /* \"#utility.yul\":3894:3908   */\n      add\n        /* \"#utility.yul\":3887:3931   */\n      mstore\n        /* \"#utility.yul\":3770:3938   */\n      pop\n      jump\t// out\n        /* \"#utility.yul\":3944:4310   */\n    tag_81:\n        /* \"#utility.yul\":4086:4089   */\n      0x00\n        /* \"#utility.yul\":4107:4174   */\n      tag_130\n        /* \"#utility.yul\":4171:4173   */\n      0x12\n        /* \"#utility.yul\":4166:4169   */\n      dup4\n        /* \"#utility.yul\":4107:4174   */\n      tag_77\n      jump\t// in\n    tag_130:\n        /* \"#utility.yul\":4100:4174   */\n      swap2\n      pop\n        /* \"#utility.yul\":4183:4276   */\n      tag_131\n        /* \"#utility.yul\":4272:4275   */\n      dup3\n        /* \"#utility.yul\":4183:4276   */\n      tag_80\n      jump\t// in\n    tag_131:\n        /* \"#utility.yul\":4301:4303   */\n      0x20\n        /* \"#utility.yul\":4296:4299   */\n      dup3\n        /* \"#utility.yul\":4292:4304   */\n      add\n        /* \"#utility.yul\":4285:4304   */\n      swap1\n      pop\n        /* \"#utility.yul\":3944:4310   */\n      swap2\n      swap1\n      pop\n      jump\t// out\n        /* \"#utility.yul\":4316:4735   */\n    tag_42:\n        /* \"#utility.yul\":4482:4486   */\n      0x00\n        /* \"#utility.yul\":4520:4522   */\n      0x20\n        /* \"#utility.yul\":4509:4518   */\n      dup3\n        /* \"#utility.yul\":4505:4523   */\n      add\n        /* \"#utility.yul\":4497:4523   */\n      swap1\n      pop\n        /* \"#utility.yul\":4569:4578   */\n      dup2\n        /* \"#utility.yul\":4563:4567   */\n      dup2\n        /* \"#utility.yul\":4559:4579   */\n      sub\n        /* \"#utility.yul\":4555:4556   */\n      0x00\n        /* \"#utility.yul\":4544:4553   */\n      dup4\n        /* \"#utility.yul\":4540:4557   */\n      add\n        /* \"#utility.yul\":4533:4580   */\n      mstore\n        /* \"#utility.yul\":4597:4728   */\n      tag_133\n        /* \"#utility.yul\":4723:4727   */\n      dup2\n        /* \"#utility.yul\":4597:4728   */\n      tag_81\n      jump\t// in\n    tag_133:\n        /* \"#utility.yul\":4589:4728   */\n      swap1\n      pop\n        /* \"#utility.yul\":4316:4735   */\n      swap2\n      swap1\n      pop\n      jump\t// out\n        /* \"#utility.yul\":4741:4921   */\n    tag_82:\n        /* \"#utility.yul\":4789:4866   */\n      0x4e487b7100000000000000000000000000000000000000000000000000000000\n        /* \"#utility.yul\":4786:4787   */\n      0x00\n        /* \"#utility.yul\":4779:4867   */\n      mstore\n        /* \"#utility.yul\":4886:4890   */\n      0x11\n        /* \"#utility.yul\":4883:4884   */\n      0x04\n        /* \"#utility.yul\":4876:4891   */\n      mstore\n        /* \"#utility.yul\":4910:4914   */\n      0x24\n        /* \"#utility.yul\":4907:4908   */\n      0x00\n        /* \"#utility.yul\":4900:4915   */\n      revert\n        /* \"#utility.yul\":4927:5121   */\n    tag_46:\n        /* \"#utility.yul\":4967:4971   */\n      0x00\n        /* \"#utility.yul\":4987:5007   */\n      tag_136\n        /* \"#utility.yul\":5005:5006   */\n      dup3\n        /* \"#utility.yul\":4987:5007   */\n      tag_65\n      jump\t// in\n    tag_136:\n        /* \"#utility.yul\":4982:5007   */\n      swap2\n      pop\n        /* \"#utility.yul\":5021:5041   */\n      tag_137\n        /* \"#utility.yul\":5039:5040   */\n      dup4\n        /* \"#utility.yul\":5021:5041   */\n      tag_65\n      jump\t// in\n    tag_137:\n        /* \"#utility.yul\":5016:5041   */\n      swap3\n      pop\n        /* \"#utility.yul\":5065:5066   */\n      dup3\n        /* \"#utility.yul\":5062:5063   */\n      dup3\n        /* \"#utility.yul\":5058:5067   */\n      sub\n        /* \"#utility.yul\":5050:5067   */\n      swap1\n      pop\n        /* \"#utility.yul\":5089:5090   */\n      dup2\n        /* \"#utility.yul\":5083:5087   */\n      dup2\n        /* \"#utility.yul\":5080:5091   */\n      gt\n        /* \"#utility.yul\":5077:5114   */\n      iszero\n      tag_138\n      jumpi\n        /* \"#utility.yul\":5094:5112   */\n      tag_139\n      tag_82\n      jump\t// in\n    tag_139:\n        /* \"#utility.yul\":5077:5114   */\n    tag_138:\n        /* \"#utility.yul\":4927:5121   */\n      swap3\n      swap2\n      pop\n      pop\n      jump\t// out\n        /* \"#utility.yul\":5127:5459   */\n    tag_48:\n        /* \"#utility.yul\":5248:5252   */\n      0x00\n        /* \"#utility.yul\":5286:5288   */\n      0x40\n        /* \"#utility.yul\":5275:5284   */\n      dup3\n        /* \"#utility.yul\":5271:5289   */\n      add\n        /* \"#utility.yul\":5263:5289   */\n      swap1\n      pop\n        /* \"#utility.yul\":5299:5370   */\n      tag_141\n        /* \"#utility.yul\":5367:5368   */\n      0x00\n        /* \"#utility.yul\":5356:5365   */\n      dup4\n        /* \"#utility.yul\":5352:5369   */\n      add\n        /* \"#utility.yul\":5343:5349   */\n      dup6\n        /* \"#utility.yul\":5299:5370   */\n      tag_76\n      jump\t// in\n    tag_141:\n        /* \"#utility.yul\":5380:5452   */\n      tag_142\n        /* \"#utility.yul\":5448:5450   */\n      0x20\n        /* \"#utility.yul\":5437:5446   */\n      dup4\n        /* \"#utility.yul\":5433:5451   */\n      add\n        /* \"#utility.yul\":5424:5430   */\n      dup5\n        /* \"#utility.yul\":5380:5452   */\n      tag_66\n      jump\t// in\n    tag_142:\n        /* \"#utility.yul\":5127:5459   */\n      swap4\n      swap3\n      pop\n      pop\n      pop\n      jump\t// out\n        /* \"#utility.yul\":5465:5647   */\n    tag_83:\n        /* \"#utility.yul\":5605:5639   */\n      0x4e65772061646d696e20616464726573732063616e6e6f74206265207a65726f\n        /* \"#utility.yul\":5601:5602   */\n      0x00\n        /* \"#utility.yul\":5593:5599   */\n      dup3\n        /* \"#utility.yul\":5589:5603   */\n      add\n        /* \"#utility.yul\":5582:5640   */\n      mstore\n        /* \"#utility.yul\":5465:5647   */\n      pop\n      jump\t// out\n        /* \"#utility.yul\":5653:6019   */\n    tag_84:\n        /* \"#utility.yul\":5795:5798   */\n      0x00\n        /* \"#utility.yul\":5816:5883   */\n      tag_145\n        /* \"#utility.yul\":5880:5882   */\n      0x20\n        /* \"#utility.yul\":5875:5878   */\n      dup4\n        /* \"#utility.yul\":5816:5883   */\n      tag_77\n      jump\t// in\n    tag_145:\n        /* \"#utility.yul\":5809:5883   */\n      swap2\n      pop\n        /* \"#utility.yul\":5892:5985   */\n      tag_146\n        /* \"#utility.yul\":5981:5984   */\n      dup3\n        /* \"#utility.yul\":5892:5985   */\n      tag_83\n      jump\t// in\n    tag_146:\n        /* \"#utility.yul\":6010:6012   */\n      0x20\n        /* \"#utility.yul\":6005:6008   */\n      dup3\n        /* \"#utility.yul\":6001:6013   */\n      add\n        /* \"#utility.yul\":5994:6013   */\n      swap1\n      pop\n        /* \"#utility.yul\":5653:6019   */\n      swap2\n      swap1\n      pop\n      jump\t// out\n        /* \"#utility.yul\":6025:6444   */\n    tag_55:\n        /* \"#utility.yul\":6191:6195   */\n      0x00\n        /* \"#utility.yul\":6229:6231   */\n      0x20\n        /* \"#utility.yul\":6218:6227   */\n      dup3\n        /* \"#utility.yul\":6214:6232   */\n      add\n        /* \"#utility.yul\":6206:6232   */\n      swap1\n      pop\n        /* \"#utility.yul\":6278:6287   */\n      dup2\n        /* \"#utility.yul\":6272:6276   */\n      dup2\n        /* \"#utility.yul\":6268:6288   */\n      sub\n        /* \"#utility.yul\":6264:6265   */\n      0x00\n        /* \"#utility.yul\":6253:6262   */\n      dup4\n        /* \"#utility.yul\":6249:6266   */\n      add\n        /* \"#utility.yul\":6242:6289   */\n      mstore\n        /* \"#utility.yul\":6306:6437   */\n      tag_148\n        /* \"#utility.yul\":6432:6436   */\n      dup2\n        /* \"#utility.yul\":6306:6437   */\n      tag_84\n      jump\t// in\n    tag_148:\n        /* \"#utility.yul\":6298:6437   */\n      swap1\n      pop\n        /* \"#utility.yul\":6025:6444   */\n      swap2\n      swap1\n      pop\n      jump\t// out\n        /* \"#utility.yul\":6450:6782   */\n    tag_57:\n        /* \"#utility.yul\":6571:6575   */\n      0x00\n        /* \"#utility.yul\":6609:6611   */\n      0x40\n        /* \"#utility.yul\":6598:6607   */\n      dup3\n        /* \"#utility.yul\":6594:6612   */\n      add\n        /* \"#utility.yul\":6586:6612   */\n      swap1\n      pop\n        /* \"#utility.yul\":6622:6693   */\n      tag_150\n        /* \"#utility.yul\":6690:6691   */\n      0x00\n        /* \"#utility.yul\":6679:6688   */\n      dup4\n        /* \"#utility.yul\":6675:6692   */\n      add\n        /* \"#utility.yul\":6666:6672   */\n      dup6\n        /* \"#utility.yul\":6622:6693   */\n      tag_76\n      jump\t// in\n    tag_150:\n        /* \"#utility.yul\":6703:6775   */\n      tag_151\n        /* \"#utility.yul\":6771:6773   */\n      0x20\n        /* \"#utility.yul\":6760:6769   */\n      dup4\n        /* \"#utility.yul\":6756:6774   */\n      add\n        /* \"#utility.yul\":6747:6753   */\n      dup5\n        /* \"#utility.yul\":6703:6775   */\n      tag_76\n      jump\t// in\n    tag_151:\n        /* \"#utility.yul\":6450:6782   */\n      swap4\n      swap3\n      pop\n      pop\n      pop\n      jump\t// out\n        /* \"#utility.yul\":6788:7013   */\n    tag_85:\n        /* \"#utility.yul\":6928:6962   */\n      0x446f6e6174696f6e20616d6f756e74206d757374206265206772656174657220\n        /* \"#utility.yul\":6924:6925   */\n      0x00\n        /* \"#utility.yul\":6916:6922   */\n      dup3\n        /* \"#utility.yul\":6912:6926   */\n      add\n        /* \"#utility.yul\":6905:6963   */\n      mstore\n        /* \"#utility.yul\":6997:7005   */\n      0x7468616e20300000000000000000000000000000000000000000000000000000\n        /* \"#utility.yul\":6992:6994   */\n      0x20\n        /* \"#utility.yul\":6984:6990   */\n      dup3\n        /* \"#utility.yul\":6980:6995   */\n      add\n        /* \"#utility.yul\":6973:7006   */\n      mstore\n        /* \"#utility.yul\":6788:7013   */\n      pop\n      jump\t// out\n        /* \"#utility.yul\":7019:7385   */\n    tag_86:\n        /* \"#utility.yul\":7161:7164   */\n      0x00\n        /* \"#utility.yul\":7182:7249   */\n      tag_154\n        /* \"#utility.yul\":7246:7248   */\n      0x26\n        /* \"#utility.yul\":7241:7244   */\n      dup4\n        /* \"#utility.yul\":7182:7249   */\n      tag_77\n      jump\t// in\n    tag_154:\n        /* \"#utility.yul\":7175:7249   */\n      swap2\n      pop\n        /* \"#utility.yul\":7258:7351   */\n      tag_155\n        /* \"#utility.yul\":7347:7350   */\n      dup3\n        /* \"#utility.yul\":7258:7351   */\n      tag_85\n      jump\t// in\n    tag_155:\n        /* \"#utility.yul\":7376:7378   */\n      0x40\n        /* \"#utility.yul\":7371:7374   */\n      dup3\n        /* \"#utility.yul\":7367:7379   */\n      add\n        /* \"#utility.yul\":7360:7379   */\n      swap1\n      pop\n        /* \"#utility.yul\":7019:7385   */\n      swap2\n      swap1\n      pop\n      jump\t// out\n        /* \"#utility.yul\":7391:7810   */\n    tag_61:\n        /* \"#utility.yul\":7557:7561   */\n      0x00\n        /* \"#utility.yul\":7595:7597   */\n      0x20\n        /* \"#utility.yul\":7584:7593   */\n      dup3\n        /* \"#utility.yul\":7580:7598   */\n      add\n        /* \"#utility.yul\":7572:7598   */\n      swap1\n      pop\n        /* \"#utility.yul\":7644:7653   */\n      dup2\n        /* \"#utility.yul\":7638:7642   */\n      dup2\n        /* \"#utility.yul\":7634:7654   */\n      sub\n        /* \"#utility.yul\":7630:7631   */\n      0x00\n        /* \"#utility.yul\":7619:7628   */\n      dup4\n        /* \"#utility.yul\":7615:7632   */\n      add\n        /* \"#utility.yul\":7608:7655   */\n      mstore\n        /* \"#utility.yul\":7672:7803   */\n      tag_157\n        /* \"#utility.yul\":7798:7802   */\n      dup2\n        /* \"#utility.yul\":7672:7803   */\n      tag_86\n      jump\t// in\n    tag_157:\n        /* \"#utility.yul\":7664:7803   */\n      swap1\n      pop\n        /* \"#utility.yul\":7391:7810   */\n      swap2\n      swap1\n      pop\n      jump\t// out\n        /* \"#utility.yul\":7816:8007   */\n    tag_63:\n        /* \"#utility.yul\":7856:7859   */\n      0x00\n        /* \"#utility.yul\":7875:7895   */\n      tag_159\n        /* \"#utility.yul\":7893:7894   */\n      dup3\n        /* \"#utility.yul\":7875:7895   */\n      tag_65\n      jump\t// in\n    tag_159:\n        /* \"#utility.yul\":7870:7895   */\n      swap2\n      pop\n        /* \"#utility.yul\":7909:7929   */\n      tag_160\n        /* \"#utility.yul\":7927:7928   */\n      dup4\n        /* \"#utility.yul\":7909:7929   */\n      tag_65\n      jump\t// in\n    tag_160:\n        /* \"#utility.yul\":7904:7929   */\n      swap3\n      pop\n        /* \"#utility.yul\":7952:7953   */\n      dup3\n        /* \"#utility.yul\":7949:7950   */\n      dup3\n        /* \"#utility.yul\":7945:7954   */\n      add\n        /* \"#utility.yul\":7938:7954   */\n      swap1\n      pop\n        /* \"#utility.yul\":7973:7976   */\n      dup1\n        /* \"#utility.yul\":7970:7971   */\n      dup3\n        /* \"#utility.yul\":7967:7977   */\n      gt\n        /* \"#utility.yul\":7964:8000   */\n      iszero\n      tag_161\n      jumpi\n        /* \"#utility.yul\":7980:7998   */\n      tag_162\n      tag_82\n      jump\t// in\n    tag_162:\n        /* \"#utility.yul\":7964:8000   */\n    tag_161:\n        /* \"#utility.yul\":7816:8007   */\n      swap3\n      swap2\n      pop\n      pop\n      jump\t// out\n\n    auxdata: 0xa2646970667358221220cd21da5f8eb35abf1b0bf08d29694a230ca180c03d636983de0296624c85af2064736f6c634300081a0033\n}\n",
				"bytecode": {
					"linkReferences": {},
					"object": "6080604052348015600e575f80fd5b50335f806101000a81548173ffffffffffffffffffffffffffffffffffffffff021916908373ffffffffffffffffffffffffffffffffffffffff1602179055506109808061005b5f395ff3fe608060405260043610610054575f3560e01c806312065fe0146100585780632e1a7d4d1461008257806375829def146100aa578063de2ed893146100d2578063ed88c68e146100fc578063f851a44014610106575b5f80fd5b348015610063575f80fd5b5061006c610130565b604051610079919061054e565b60405180910390f35b34801561008d575f80fd5b506100a860048036038101906100a39190610595565b610137565b005b3480156100b5575f80fd5b506100d060048036038101906100cb919061061a565b6102dd565b005b3480156100dd575f80fd5b506100e6610478565b6040516100f3919061054e565b60405180910390f35b61010461047e565b005b348015610111575f80fd5b5061011a610513565b6040516101279190610654565b60405180910390f35b5f47905090565b5f8054906101000a900473ffffffffffffffffffffffffffffffffffffffff1673ffffffffffffffffffffffffffffffffffffffff163373ffffffffffffffffffffffffffffffffffffffff16146101c4576040517f08c379a00000000000000000000000000000000000000000000000000000000081526004016101bb906106ed565b60405180910390fd5b47811115610207576040517f08c379a00000000000000000000000000000000000000000000000000000000081526004016101fe90610755565b60405180910390fd5b5f8054906101000a900473ffffffffffffffffffffffffffffffffffffffff1673ffffffffffffffffffffffffffffffffffffffff166108fc8290811502906040515f60405180830381858888f19350505050158015610269573d5f803e3d5ffd5b508060015f82825461027b91906107a0565b925050819055507feaff4b37086828766ad3268786972c0cd24259d4c87a80f9d3963a3c3d999b0d5f8054906101000a900473ffffffffffffffffffffffffffffffffffffffff16826040516102d29291906107d3565b60405180910390a150565b5f8054906101000a900473ffffffffffffffffffffffffffffffffffffffff1673ffffffffffffffffffffffffffffffffffffffff163373ffffffffffffffffffffffffffffffffffffffff161461036a576040517f08c379a0000000000000000000000000000000000000000000000000000000008152600401610361906106ed565b60405180910390fd5b5f73ffffffffffffffffffffffffffffffffffffffff168173ffffffffffffffffffffffffffffffffffffffff16036103d8576040517f08c379a00000000000000000000000000000000000000000000000000000000081526004016103cf90610844565b60405180910390fd5b5f805f9054906101000a900473ffffffffffffffffffffffffffffffffffffffff169050815f806101000a81548173ffffffffffffffffffffffffffffffffffffffff021916908373ffffffffffffffffffffffffffffffffffffffff1602179055507ff8ccb027dfcd135e000e9d45e6cc2d662578a8825d4c45b5e32e0adf67e79ec6818360405161046c929190610862565b60405180910390a15050565b60015481565b5f34116104c0576040517f08c379a00000000000000000000000000000000000000000000000000000000081526004016104b7906108f9565b60405180910390fd5b3460015f8282546104d19190610917565b925050819055507f264f630d9efa0d07053a31163641d9fcc0adafc9d9e76f1c37c2ce3a558d2c5233346040516105099291906107d3565b60405180910390a1565b5f8054906101000a900473ffffffffffffffffffffffffffffffffffffffff1681565b5f819050919050565b61054881610536565b82525050565b5f6020820190506105615f83018461053f565b92915050565b5f80fd5b61057481610536565b811461057e575f80fd5b50565b5f8135905061058f8161056b565b92915050565b5f602082840312156105aa576105a9610567565b5b5f6105b784828501610581565b91505092915050565b5f73ffffffffffffffffffffffffffffffffffffffff82169050919050565b5f6105e9826105c0565b9050919050565b6105f9816105df565b8114610603575f80fd5b50565b5f81359050610614816105f0565b92915050565b5f6020828403121561062f5761062e610567565b5b5f61063c84828501610606565b91505092915050565b61064e816105df565b82525050565b5f6020820190506106675f830184610645565b92915050565b5f82825260208201905092915050565b7f4f6e6c792061646d696e2063616e20706572666f726d207468697320616374695f8201527f6f6e000000000000000000000000000000000000000000000000000000000000602082015250565b5f6106d760228361066d565b91506106e28261067d565b604082019050919050565b5f6020820190508181035f830152610704816106cb565b9050919050565b7f496e73756666696369656e742066756e647300000000000000000000000000005f82015250565b5f61073f60128361066d565b915061074a8261070b565b602082019050919050565b5f6020820190508181035f83015261076c81610733565b9050919050565b7f4e487b71000000000000000000000000000000000000000000000000000000005f52601160045260245ffd5b5f6107aa82610536565b91506107b583610536565b92508282039050818111156107cd576107cc610773565b5b92915050565b5f6040820190506107e65f830185610645565b6107f3602083018461053f565b9392505050565b7f4e65772061646d696e20616464726573732063616e6e6f74206265207a65726f5f82015250565b5f61082e60208361066d565b9150610839826107fa565b602082019050919050565b5f6020820190508181035f83015261085b81610822565b9050919050565b5f6040820190506108755f830185610645565b6108826020830184610645565b9392505050565b7f446f6e6174696f6e20616d6f756e74206d7573742062652067726561746572205f8201527f7468616e20300000000000000000000000000000000000000000000000000000602082015250565b5f6108e360268361066d565b91506108ee82610889565b604082019050919050565b5f6020820190508181035f830152610910816108d7565b9050919050565b5f61092182610536565b915061092c83610536565b925082820190508082111561094457610943610773565b5b9291505056fea2646970667358221220cd21da5f8eb35abf1b0bf08d29694a230ca180c03d636983de0296624c85af2064736f6c634300081a0033",
					"opcodes": "PUSH1 0x80 PUSH1 0x40 MSTORE CALLVALUE DUP1 ISZERO PUSH1 0xE JUMPI PUSH0 DUP1 REVERT JUMPDEST POP CALLER PUSH0 DUP1 PUSH2 0x100 EXP DUP2 SLOAD DUP2 PUSH20 0xFFFFFFFFFFFFFFFFFFFFFFFFFFFFFFFFFFFFFFFF MUL NOT AND SWAP1 DUP4 PUSH20 0xFFFFFFFFFFFFFFFFFFFFFFFFFFFFFFFFFFFFFFFF AND MUL OR SWAP1 SSTORE POP PUSH2 0x980 DUP1 PUSH2 0x5B PUSH0 CODECOPY PUSH0 RETURN INVALID PUSH1 0x80 PUSH1 0x40 MSTORE PUSH1 0x4 CALLDATASIZE LT PUSH2 0x54 JUMPI PUSH0 CALLDATALOAD PUSH1 0xE0 SHR DUP1 PUSH4 0x12065FE0 EQ PUSH2 0x58 JUMPI DUP1 PUSH4 0x2E1A7D4D EQ PUSH2 0x82 JUMPI DUP1 PUSH4 0x75829DEF EQ PUSH2 0xAA JUMPI DUP1 PUSH4 0xDE2ED893 EQ PUSH2 0xD2 JUMPI DUP1 PUSH4 0xED88C68E EQ PUSH2 0xFC JUMPI DUP1 PUSH4 0xF851A440 EQ PUSH2 0x106 JUMPI JUMPDEST PUSH0 DUP1 REVERT JUMPDEST CALLVALUE DUP1 ISZERO PUSH2 0x63 JUMPI PUSH0 DUP1 REVERT JUMPDEST POP PUSH2 0x6C PUSH2 0x130 JUMP JUMPDEST PUSH1 0x40 MLOAD PUSH2 0x79 SWAP2 SWAP1 PUSH2 0x54E JUMP JUMPDEST PUSH1 0x40 MLOAD DUP1 SWAP2 SUB SWAP1 RETURN JUMPDEST CALLVALUE DUP1 ISZERO PUSH2 0x8D JUMPI PUSH0 DUP1 REVERT JUMPDEST POP PUSH2 0xA8 PUSH1 0x4 DUP1 CALLDATASIZE SUB DUP2 ADD SWAP1 PUSH2 0xA3 SWAP2 SWAP1 PUSH2 0x595 JUMP JUMPDEST PUSH2 0x137 JUMP JUMPDEST STOP JUMPDEST CALLVALUE DUP1 ISZERO PUSH2 0xB5 JUMPI PUSH0 DUP1 REVERT JUMPDEST POP PUSH2 0xD0 PUSH1 0x4 DUP1 CALLDATASIZE SUB DUP2 ADD SWAP1 PUSH2 0xCB SWAP2 SWAP1 PUSH2 0x61A JUMP JUMPDEST PUSH2 0x2DD JUMP JUMPDEST STOP JUMPDEST CALLVALUE DUP1 ISZERO PUSH2 0xDD JUMPI PUSH0 DUP1 REVERT JUMPDEST POP PUSH2 0xE6 PUSH2 0x478 JUMP JUMPDEST PUSH1 0x40 MLOAD PUSH2 0xF3 SWAP2 SWAP1 PUSH2 0x54E JUMP JUMPDEST PUSH1 0x40 MLOAD DUP1 SWAP2 SUB SWAP1 RETURN JUMPDEST PUSH2 0x104 PUSH2 0x47E JUMP JUMPDEST STOP JUMPDEST CALLVALUE DUP1 ISZERO PUSH2 0x111 JUMPI PUSH0 DUP1 REVERT JUMPDEST POP PUSH2 0x11A PUSH2 0x513 JUMP JUMPDEST PUSH1 0x40 MLOAD PUSH2 0x127 SWAP2 SWAP1 PUSH2 0x654 JUMP JUMPDEST PUSH1 0x40 MLOAD DUP1 SWAP2 SUB SWAP1 RETURN JUMPDEST PUSH0 SELFBALANCE SWAP1 POP SWAP1 JUMP JUMPDEST PUSH0 DUP1 SLOAD SWAP1 PUSH2 0x100 EXP SWAP1 DIV PUSH20 0xFFFFFFFFFFFFFFFFFFFFFFFFFFFFFFFFFFFFFFFF AND PUSH20 0xFFFFFFFFFFFFFFFFFFFFFFFFFFFFFFFFFFFFFFFF AND CALLER PUSH20 0xFFFFFFFFFFFFFFFFFFFFFFFFFFFFFFFFFFFFFFFF AND EQ PUSH2 0x1C4 JUMPI PUSH1 0x40 MLOAD PUSH32 0x8C379A000000000000000000000000000000000000000000000000000000000 DUP2 MSTORE PUSH1 0x4 ADD PUSH2 0x1BB SWAP1 PUSH2 0x6ED JUMP JUMPDEST PUSH1 0x40 MLOAD DUP1 SWAP2 SUB SWAP1 REVERT JUMPDEST SELFBALANCE DUP2 GT ISZERO PUSH2 0x207 JUMPI PUSH1 0x40 MLOAD PUSH32 0x8C379A000000000000000000000000000000000000000000000000000000000 DUP2 MSTORE PUSH1 0x4 ADD PUSH2 0x1FE SWAP1 PUSH2 0x755 JUMP JUMPDEST PUSH1 0x40 MLOAD DUP1 SWAP2 SUB SWAP1 REVERT JUMPDEST PUSH0 DUP1 SLOAD SWAP1 PUSH2 0x100 EXP SWAP1 DIV PUSH20 0xFFFFFFFFFFFFFFFFFFFFFFFFFFFFFFFFFFFFFFFF AND PUSH20 0xFFFFFFFFFFFFFFFFFFFFFFFFFFFFFFFFFFFFFFFF AND PUSH2 0x8FC DUP3 SWAP1 DUP2 ISZERO MUL SWAP1 PUSH1 0x40 MLOAD PUSH0 PUSH1 0x40 MLOAD DUP1 DUP4 SUB DUP2 DUP6 DUP9 DUP9 CALL SWAP4 POP POP POP POP ISZERO DUP1 ISZERO PUSH2 0x269 JUMPI RETURNDATASIZE PUSH0 DUP1 RETURNDATACOPY RETURNDATASIZE PUSH0 REVERT JUMPDEST POP DUP1 PUSH1 0x1 PUSH0 DUP3 DUP3 SLOAD PUSH2 0x27B SWAP2 SWAP1 PUSH2 0x7A0 JUMP JUMPDEST SWAP3 POP POP DUP2 SWAP1 SSTORE POP PUSH32 0xEAFF4B37086828766AD3268786972C0CD24259D4C87A80F9D3963A3C3D999B0D PUSH0 DUP1 SLOAD SWAP1 PUSH2 0x100 EXP SWAP1 DIV PUSH20 0xFFFFFFFFFFFFFFFFFFFFFFFFFFFFFFFFFFFFFFFF AND DUP3 PUSH1 0x40 MLOAD PUSH2 0x2D2 SWAP3 SWAP2 SWAP1 PUSH2 0x7D3 JUMP JUMPDEST PUSH1 0x40 MLOAD DUP1 SWAP2 SUB SWAP1 LOG1 POP JUMP JUMPDEST PUSH0 DUP1 SLOAD SWAP1 PUSH2 0x100 EXP SWAP1 DIV PUSH20 0xFFFFFFFFFFFFFFFFFFFFFFFFFFFFFFFFFFFFFFFF AND PUSH20 0xFFFFFFFFFFFFFFFFFFFFFFFFFFFFFFFFFFFFFFFF AND CALLER PUSH20 0xFFFFFFFFFFFFFFFFFFFFFFFFFFFFFFFFFFFFFFFF AND EQ PUSH2 0x36A JUMPI PUSH1 0x40 MLOAD PUSH32 0x8C379A000000000000000000000000000000000000000000000000000000000 DUP2 MSTORE PUSH1 0x4 ADD PUSH2 0x361 SWAP1 PUSH2 0x6ED JUMP JUMPDEST PUSH1 0x40 MLOAD DUP1 SWAP2 SUB SWAP1 REVERT JUMPDEST PUSH0 PUSH20 0xFFFFFFFFFFFFFFFFFFFFFFFFFFFFFFFFFFFFFFFF AND DUP2 PUSH20 0xFFFFFFFFFFFFFFFFFFFFFFFFFFFFFFFFFFFFFFFF AND SUB PUSH2 0x3D8 JUMPI PUSH1 0x40 MLOAD PUSH32 0x8C379A000000000000000000000000000000000000000000000000000000000 DUP2 MSTORE PUSH1 0x4 ADD PUSH2 0x3CF SWAP1 PUSH2 0x844 JUMP JUMPDEST PUSH1 0x40 MLOAD DUP1 SWAP2 SUB SWAP1 REVERT JUMPDEST PUSH0 DUP1 PUSH0 SWAP1 SLOAD SWAP1 PUSH2 0x100 EXP SWAP1 DIV PUSH20 0xFFFFFFFFFFFFFFFFFFFFFFFFFFFFFFFFFFFFFFFF AND SWAP1 POP DUP2 PUSH0 DUP1 PUSH2 0x100 EXP DUP2 SLOAD DUP2 PUSH20 0xFFFFFFFFFFFFFFFFFFFFFFFFFFFFFFFFFFFFFFFF MUL NOT AND SWAP1 DUP4 PUSH20 0xFFFFFFFFFFFFFFFFFFFFFFFFFFFFFFFFFFFFFFFF AND MUL OR SWAP1 SSTORE POP PUSH32 0xF8CCB027DFCD135E000E9D45E6CC2D662578A8825D4C45B5E32E0ADF67E79EC6 DUP2 DUP4 PUSH1 0x40 MLOAD PUSH2 0x46C SWAP3 SWAP2 SWAP1 PUSH2 0x862 JUMP JUMPDEST PUSH1 0x40 MLOAD DUP1 SWAP2 SUB SWAP1 LOG1 POP POP JUMP JUMPDEST PUSH1 0x1 SLOAD DUP2 JUMP JUMPDEST PUSH0 CALLVALUE GT PUSH2 0x4C0 JUMPI PUSH1 0x40 MLOAD PUSH32 0x8C379A000000000000000000000000000000000000000000000000000000000 DUP2 MSTORE PUSH1 0x4 ADD PUSH2 0x4B7 SWAP1 PUSH2 0x8F9 JUMP JUMPDEST PUSH1 0x40 MLOAD DUP1 SWAP2 SUB SWAP1 REVERT JUMPDEST CALLVALUE PUSH1 0x1 PUSH0 DUP3 DUP3 SLOAD PUSH2 0x4D1 SWAP2 SWAP1 PUSH2 0x917 JUMP JUMPDEST SWAP3 POP POP DUP2 SWAP1 SSTORE POP PUSH32 0x264F630D9EFA0D07053A31163641D9FCC0ADAFC9D9E76F1C37C2CE3A558D2C52 CALLER CALLVALUE PUSH1 0x40 MLOAD PUSH2 0x509 SWAP3 SWAP2 SWAP1 PUSH2 0x7D3 JUMP JUMPDEST PUSH1 0x40 MLOAD DUP1 SWAP2 SUB SWAP1 LOG1 JUMP JUMPDEST PUSH0 DUP1 SLOAD SWAP1 PUSH2 0x100 EXP SWAP1 DIV PUSH20 0xFFFFFFFFFFFFFFFFFFFFFFFFFFFFFFFFFFFFFFFF AND DUP2 JUMP JUMPDEST PUSH0 DUP2 SWAP1 POP SWAP2 SWAP1 POP JUMP JUMPDEST PUSH2 0x548 DUP2 PUSH2 0x536 JUMP JUMPDEST DUP3 MSTORE POP POP JUMP JUMPDEST PUSH0 PUSH1 0x20 DUP3 ADD SWAP1 POP PUSH2 0x561 PUSH0 DUP4 ADD DUP5 PUSH2 0x53F JUMP JUMPDEST SWAP3 SWAP2 POP POP JUMP JUMPDEST PUSH0 DUP1 REVERT JUMPDEST PUSH2 0x574 DUP2 PUSH2 0x536 JUMP JUMPDEST DUP2 EQ PUSH2 0x57E JUMPI PUSH0 DUP1 REVERT JUMPDEST POP JUMP JUMPDEST PUSH0 DUP2 CALLDATALOAD SWAP1 POP PUSH2 0x58F DUP2 PUSH2 0x56B JUMP JUMPDEST SWAP3 SWAP2 POP POP JUMP JUMPDEST PUSH0 PUSH1 0x20 DUP3 DUP5 SUB SLT ISZERO PUSH2 0x5AA JUMPI PUSH2 0x5A9 PUSH2 0x567 JUMP JUMPDEST JUMPDEST PUSH0 PUSH2 0x5B7 DUP5 DUP3 DUP6 ADD PUSH2 0x581 JUMP JUMPDEST SWAP2 POP POP SWAP3 SWAP2 POP POP JUMP JUMPDEST PUSH0 PUSH20 0xFFFFFFFFFFFFFFFFFFFFFFFFFFFFFFFFFFFFFFFF DUP3 AND SWAP1 POP SWAP2 SWAP1 POP JUMP JUMPDEST PUSH0 PUSH2 0x5E9 DUP3 PUSH2 0x5C0 JUMP JUMPDEST SWAP1 POP SWAP2 SWAP1 POP JUMP JUMPDEST PUSH2 0x5F9 DUP2 PUSH2 0x5DF JUMP JUMPDEST DUP2 EQ PUSH2 0x603 JUMPI PUSH0 DUP1 REVERT JUMPDEST POP JUMP JUMPDEST PUSH0 DUP2 CALLDATALOAD SWAP1 POP PUSH2 0x614 DUP2 PUSH2 0x5F0 JUMP JUMPDEST SWAP3 SWAP2 POP POP JUMP JUMPDEST PUSH0 PUSH1 0x20 DUP3 DUP5 SUB SLT ISZERO PUSH2 0x62F JUMPI PUSH2 0x62E PUSH2 0x567 JUMP JUMPDEST JUMPDEST PUSH0 PUSH2 0x63C DUP5 DUP3 DUP6 ADD PUSH2 0x606 JUMP JUMPDEST SWAP2 POP POP SWAP3 SWAP2 POP POP JUMP JUMPDEST PUSH2 0x64E DUP2 PUSH2 0x5DF JUMP JUMPDEST DUP3 MSTORE POP POP JUMP JUMPDEST PUSH0 PUSH1 0x20 DUP3 ADD SWAP1 POP PUSH2 0x667 PUSH0 DUP4 ADD DUP5 PUSH2 0x645 JUMP JUMPDEST SWAP3 SWAP2 POP POP JUMP JUMPDEST PUSH0 DUP3 DUP3 MSTORE PUSH1 0x20 DUP3 ADD SWAP1 POP SWAP3 SWAP2 POP POP JUMP JUMPDEST PUSH32 0x4F6E6C792061646D696E2063616E20706572666F726D20746869732061637469 PUSH0 DUP3 ADD MSTORE PUSH32 0x6F6E000000000000000000000000000000000000000000000000000000000000 PUSH1 0x20 DUP3 ADD MSTORE POP JUMP JUMPDEST PUSH0 PUSH2 0x6D7 PUSH1 0x22 DUP4 PUSH2 0x66D JUMP JUMPDEST SWAP2 POP PUSH2 0x6E2 DUP3 PUSH2 0x67D JUMP JUMPDEST PUSH1 0x40 DUP3 ADD SWAP1 POP SWAP2 SWAP1 POP JUMP JUMPDEST PUSH0 PUSH1 0x20 DUP3 ADD SWAP1 POP DUP2 DUP2 SUB PUSH0 DUP4 ADD MSTORE PUSH2 0x704 DUP2 PUSH2 0x6CB JUMP JUMPDEST SWAP1 POP SWAP2 SWAP1 POP JUMP JUMPDEST PUSH32 0x496E73756666696369656E742066756E64730000000000000000000000000000 PUSH0 DUP3 ADD MSTORE POP JUMP JUMPDEST PUSH0 PUSH2 0x73F PUSH1 0x12 DUP4 PUSH2 0x66D JUMP JUMPDEST SWAP2 POP PUSH2 0x74A DUP3 PUSH2 0x70B JUMP JUMPDEST PUSH1 0x20 DUP3 ADD SWAP1 POP SWAP2 SWAP1 POP JUMP JUMPDEST PUSH0 PUSH1 0x20 DUP3 ADD SWAP1 POP DUP2 DUP2 SUB PUSH0 DUP4 ADD MSTORE PUSH2 0x76C DUP2 PUSH2 0x733 JUMP JUMPDEST SWAP1 POP SWAP2 SWAP1 POP JUMP JUMPDEST PUSH32 0x4E487B7100000000000000000000000000000000000000000000000000000000 PUSH0 MSTORE PUSH1 0x11 PUSH1 0x4 MSTORE PUSH1 0x24 PUSH0 REVERT JUMPDEST PUSH0 PUSH2 0x7AA DUP3 PUSH2 0x536 JUMP JUMPDEST SWAP2 POP PUSH2 0x7B5 DUP4 PUSH2 0x536 JUMP JUMPDEST SWAP3 POP DUP3 DUP3 SUB SWAP1 POP DUP2 DUP2 GT ISZERO PUSH2 0x7CD JUMPI PUSH2 0x7CC PUSH2 0x773 JUMP JUMPDEST JUMPDEST SWAP3 SWAP2 POP POP JUMP JUMPDEST PUSH0 PUSH1 0x40 DUP3 ADD SWAP1 POP PUSH2 0x7E6 PUSH0 DUP4 ADD DUP6 PUSH2 0x645 JUMP JUMPDEST PUSH2 0x7F3 PUSH1 0x20 DUP4 ADD DUP5 PUSH2 0x53F JUMP JUMPDEST SWAP4 SWAP3 POP POP POP JUMP JUMPDEST PUSH32 0x4E65772061646D696E20616464726573732063616E6E6F74206265207A65726F PUSH0 DUP3 ADD MSTORE POP JUMP JUMPDEST PUSH0 PUSH2 0x82E PUSH1 0x20 DUP4 PUSH2 0x66D JUMP JUMPDEST SWAP2 POP PUSH2 0x839 DUP3 PUSH2 0x7FA JUMP JUMPDEST PUSH1 0x20 DUP3 ADD SWAP1 POP SWAP2 SWAP1 POP JUMP JUMPDEST PUSH0 PUSH1 0x20 DUP3 ADD SWAP1 POP DUP2 DUP2 SUB PUSH0 DUP4 ADD MSTORE PUSH2 0x85B DUP2 PUSH2 0x822 JUMP JUMPDEST SWAP1 POP SWAP2 SWAP1 POP JUMP JUMPDEST PUSH0 PUSH1 0x40 DUP3 ADD SWAP1 POP PUSH2 0x875 PUSH0 DUP4 ADD DUP6 PUSH2 0x645 JUMP JUMPDEST PUSH2 0x882 PUSH1 0x20 DUP4 ADD DUP5 PUSH2 0x645 JUMP JUMPDEST SWAP4 SWAP3 POP POP POP JUMP JUMPDEST PUSH32 0x446F6E6174696F6E20616D6F756E74206D757374206265206772656174657220 PUSH0 DUP3 ADD MSTORE PUSH32 0x7468616E20300000000000000000000000000000000000000000000000000000 PUSH1 0x20 DUP3 ADD MSTORE POP JUMP JUMPDEST PUSH0 PUSH2 0x8E3 PUSH1 0x26 DUP4 PUSH2 0x66D JUMP JUMPDEST SWAP2 POP PUSH2 0x8EE DUP3 PUSH2 0x889 JUMP JUMPDEST PUSH1 0x40 DUP3 ADD SWAP1 POP SWAP2 SWAP1 POP JUMP JUMPDEST PUSH0 PUSH1 0x20 DUP3 ADD SWAP1 POP DUP2 DUP2 SUB PUSH0 DUP4 ADD MSTORE PUSH2 0x910 DUP2 PUSH2 0x8D7 JUMP JUMPDEST SWAP1 POP SWAP2 SWAP1 POP JUMP JUMPDEST PUSH0 PUSH2 0x921 DUP3 PUSH2 0x536 JUMP JUMPDEST SWAP2 POP PUSH2 0x92C DUP4 PUSH2 0x536 JUMP JUMPDEST SWAP3 POP DUP3 DUP3 ADD SWAP1 POP DUP1 DUP3 GT ISZERO PUSH2 0x944 JUMPI PUSH2 0x943 PUSH2 0x773 JUMP JUMPDEST JUMPDEST SWAP3 SWAP2 POP POP JUMP INVALID LOG2 PUSH5 0x6970667358 0x22 SLT KECCAK256 0xCD 0x21 0xDA PUSH0 DUP15 0xB3 GAS 0xBF SHL SIGNEXTEND CREATE DUP14 0x29 PUSH10 0x4A230CA180C03D636983 0xDE MUL SWAP7 PUSH3 0x4C85AF KECCAK256 PUSH5 0x736F6C6343 STOP ADDMOD BYTE STOP CALLER "
				},
				"gasEstimates": {
					"creation": {
						"codeDepositCost": "486400",
						"executionCost": "24781",
						"totalCost": "511181"
					},
					"external": {
						"admin()": "2593",
						"donate()": "infinite",
						"getBalance()": "312",
						"totalDonations()": "2469",
						"transferAdmin(address)": "infinite",
						"withdraw(uint256)": "infinite"
					}
				},
				"methodIdentifiers": {
					"admin()": "f851a440",
					"donate()": "ed88c68e",
					"getBalance()": "12065fe0",
					"totalDonations()": "de2ed893",
					"transferAdmin(address)": "75829def",
					"withdraw(uint256)": "2e1a7d4d"
				}
			},
			"storageLayout": {
				"storage": [
					{
						"astId": 3,
						"contract": "charitydonation.sol:CharityDonation",
						"label": "admin",
						"offset": 0,
						"slot": "0",
						"type": "t_address"
					},
					{
						"astId": 5,
						"contract": "charitydonation.sol:CharityDonation",
						"label": "totalDonations",
						"offset": 0,
						"slot": "1",
						"type": "t_uint256"
					}
				],
				"types": {
					"t_address": {
						"encoding": "inplace",
						"label": "address",
						"numberOfBytes": "20"
					},
					"t_uint256": {
						"encoding": "inplace",
						"label": "uint256",
						"numberOfBytes": "32"
					}
				}
			},
			"userdoc": {
				"kind": "user",
				"methods": {},
				"version": 1
			}
		}
	}
}